:060000000A128A110C280F
:10000800FE00030EF6000A08F7000A128A11612999
:100018000A128A110F28F801F90183010A128A11BC
:100028001F29831203131F141A3083120313A50008
:10003800F730A400A40B1E28A50B1E282328831222
:10004800031320082104031D2A282B282E28C33037
:100058009F05752820032104031D332834283928D7
:100068001F08C33904389F00752802302006210470
:10007800031D3F28402845281F08C33908389F001A
:100088007528033020062104031D4B284C285128CD
:100098001F08C3390C389F00752804302006210436
:1000A800031D572858285D281F08C33910389F009A
:1000B8007528053020062104031D63286428692853
:1000C8001F08C33914389F007528063020062104FC
:1000D800031D6F28702875281F08C33918389F001A
:1000E8007528831603139F121F128312031322030A
:1000F8002304031D8028812884283F309F05A228D7
:10010800043022062304031D8A288B2890281F0800
:100118003F3940389F00A2280830220623040319DB
:10012800962897289E28143022062304031D9D280C
:100138009E28A2281F083F3980389F008316031382
:100148000C17831203130C13831603139F13080051
:1001580008308312031320062104031DB428B52890
:10016800BA287030831603138F041B290430200625
:100178002104031DC028C128C828831603130F08AB
:100188008F3960388F001B29023020062104031D97
:10019800CE28CF28D628831603130F088F39503856
:1001A8008F001B2920032104031DDB28DC28E328FA
:1001B800831603130F088F3940388F001B29F4303A
:1001C8002006031DEB282103031DEB28EC28F32848
:1001D800831603130F088F3930388F001B29FA3024
:1001E80020062104031DF928FA2801298316031380
:1001F8000F088F3920388F001B297D3020062104F5
:10020800031D072908290F29831603130F088F399F
:1002180010388F001B291F3020062104031D1529C3
:1002280016291B298F30831603138F051B29831664
:1002380003130F1408000A128A11A3210A128A1143
:10024800831203139F1829292A2938291A3083125F
:100258000313A700F730A600A60B3029A70B3029F7
:100268003529831203139F1406183B293C29452975
:10027800061C3F2940293C290130A6002608F8071A
:100288004F298618482949294F29861C4C294D2968
:1002980049290130F802033083120313A8008A3079
:1002A800A7005530A600A60B5729A70B5729A80B5E
:1002B800572924290A128A110C28831203138C1D2A
:1002C800662967298E290A128A1119220A128A11A7
:1002D800F9007908031D71297229842983120313EF
:1002E80008080A128A112F220A128A110330F5000F
:1002F8009730F400F40B7E29F50B7E2983298B298E
:1003080078080A128A112F220A128A117A2983126E
:1003180003138C110C1F912992299C290A128A1106
:1003280006220A128A1170088312031388000C131C
:1003380077088A00760E8300FE0E7E0E09000830CC
:1003480083120313A0000030A1000A128A11AC2006
:100358000A128A110A128A11F5210A128A110A123E
:100368008A1110220A128A110A128A1129220A12E3
:100378008A11003083120313A000A1000830A200E4
:100388000030A3000A128A1115200A128A1183125A
:100398000313A001A101A20124300A128A11D72156
:1003A8000A128A11080083120313A3008316031389
:1003B800871283120313231DE229E329E92922085E
:1003C8008316031394008715EF2920082204831647
:1003D8000313940087118312031323082104940044
:1003E800080001308316031788008901213083161D
:1003F80003138500FF3086008801831203138601EA
:1004080087010800831203131E08F200F301720823
:10041800F0007308F10008008B170B1783160313FD
:100428008C15831203138C1108000A128A112222D8
:100438000A128A1183120313130808008316031380
:10044800141C272A282A222A08008316031381133A
:10045800FF3095000800F000700883120313930022
:0204680008008A
:08400000FF3FFF3FFF3FFF3FC0
:04400E00D420FF3F7C
:00000001FF
