:060000000A128A110C280F
:10000800FE00030EF0000A08F1000A128A11A32C60
:100018000A128A110F28FB018313373084004930F4
:100028000A128A1194240A128A1183010A128A1167
:10003800A12983120313B0002630AB00E428253031
:100048003106031928282928332830088400310864
:10005800831380000130A8002808B007E428AC0109
:100068000130A507FF30250784000A128A11CA2328
:100078000A128A11B100A800A9012908003A031937
:100088004628E4282808003A0319F428643A031992
:1000980051280D3A03195128E4282B0884008313AA
:1000A8000008AE00840A0008AF000230A800280843
:1000B800AB07AF1F602861286A280330A80028080A
:1000C800AC04AE09AF09AE0A0319AF0AB101B10A0F
:1000D8003108A8002807013E84000A128A11CA23A1
:1000E8000A128A11A9000A128A11CA230A128A114D
:1000F800AA002A082F02031D832829082E020318A4
:1001080086288728882892280130A8002808B1075F
:1001180005303106031D912892286C282C080339D4
:10012800031997289828A128300884002D308313B4
:1001380080000130A8002808B0073108AD00DB288E
:100148000A30A0000030A1002D08A8002807013EB1
:1001580084000A128A11CA230A128A11F2000A12AA
:100168008A11CA230A128A11F3002F08F5002E08F3
:10017800F4000A128A1140230A128A1173088312A2
:100188000313A3007208A2000A128A1184230A1218
:100198008A11831203132008303EB100300884000E
:1001A8003108831380000130A8002808B007FF3009
:1001B800A8002808AD072D0A031DE328E428A42871
:1001C8000130A507FF30250784000A128A11CA23C7
:1001D8000A128A11B1003108031DF328F4282328D4
:1001E80030088400831380010800F601F60A013004
:1001F8000A128A1110240A128A110B30F500803075
:10020800F6000A128A11FA220A128A11F601F60A6F
:1002180002300A128A1110240A128A111730831226
:100228000313A5003908B200B3013208A600330849
:10023800A70044300A128A111D200A128A1144307C
:10024800F5000030F6000A128A11FA220A128A1101
:100258000630F60001300A128A1110240A128A1197
:100268000F30F5008030F6000A128A11FA220A12BD
:100278008A110630F60002300A128A1110240A1276
:100288008A11173083120313A5003808B200B3018E
:100298003208A6003308A7003F300A128A111D2031
:1002A8000A128A113F30F5000030F6000A128A114E
:1002B800FA220A128A110B30F60001300A128A114A
:1002C80010240A128A111330F5008030F6000A1241
:1002D8008A11FA220A128A110B30F60002300A1229
:1002E8008A1110240A128A11173083120313A500E9
:1002F8003708B200B3013208A6003308A7003A3025
:100308000A128A111D200A128A113A30F5000030AB
:10031800F6000A128A11FA220A128A11063083128A
:100328000313B4001330B300AD30B200B20B9A29F6
:10033800B30B9A29B40B9A2908000A128A11E923E7
:100348000A128A11831203130618AB29AC29B9299A
:10035800061CAF29B029AC297B08031DB429B5298F
:10036800B829FB01FB0AB929FB01071103308312E5
:100378000313B6009730B500B50BC029B60BC029DA
:100388007B080A128A11AA240A128A110A128A11EF
:100398008B240A128A1183120313B90003308312C3
:1003A8000313B6009730B500B50BD829B60BD8297A
:1003B8008312031307157B08031DE329E4290A2A7E
:1003C8008710033083120313B6009730B500B50BBE
:1003D800EB29B60BEB297B080A128A11AA240A1208
:1003E8008A110A128A118B240A128A1183120313A2
:1003F800B800033083120313B6009730B500B50B6D
:10040800032AB60B032A8312031387147B03031DE5
:100418000E2A0F2A352A8710033083120313B600D9
:100428009730B500B50B162AB60B162A7B080A12A8
:100438008A11AA240A128A110A128A118B240A1212
:100448008A1183120313B700033083120313B60013
:100458009730B500B50B2E2AB60B2E2A831203133C
:1004680087140A128A11F9200A128A11A6290A1277
:100478008A110C28083072067304031D442A452A81
:100488004A2A7030831603138F04AB2A043072068D
:100498007304031D502A512A582A831603130F0880
:1004A8008F3960388F00AB2A023072067304031D3F
:1004B8005E2A5F2A662A831603130F088F3950387D
:1004C8008F00AB2A72037304031D6B2A6C2A732AEC
:1004D800831603130F088F3940388F00AB2AF43086
:1004E8007206031D7B2A7303031D7B2A7C2A832A39
:1004F800831603130F088F3930388F00AB2AFA3070
:1005080072067304031D892A8A2A912A8316031303
:100518000F088F3920388F00AB2A7D30720673049C
:10052800031D972A982A9F2A831603130F088F39C9
:1005380010388F00AB2A1F3072067304031DA52ADA
:10054800A62AAB2A8F30831603138F05AB2A83168E
:1005580003130F14080000300A128A11B6240A1275
:100568008A113430F700F130F600F60BB92AF70B90
:10057800B92ABE2A30300A128A1130240A128A1186
:100588000D30F700FB30F600F60BC82AF70BC82A27
:10059800CD2A30300A128A1130240A128A111D30ED
:1005A800F7009130F600F60BD72AF70BD72A303030
:1005B8000A128A1130240A128A113C300A128A114E
:1005C80030240A128A110C300A128A1130240A12B5
:1005D8008A1101300A128A1130240A128A1106304F
:1005E8000A128A1130240A128A110800831203138E
:1005F800A001A101232B20087507F8007608F70051
:100608000318F70AA01F092BF7037708F9007908E0
:1006180083120313FF00780884000A128A11C0238A
:100628000A128A110A128A1160240A128A110130E8
:1006380083120313A0070318A10A0030A10720089A
:100648007507F8007608F7000318F70AA01F2D2B86
:10065800F7037708F900790883120313FF00780875
:1006680084000A128A11C0230A128A11003A031D53
:100678003E2B3F2BFF2A0800F701F801720873048C
:100688000319472B482B7F2BF901F90A562B013008
:100698000310F20DF30DFF3E031D4C2B0130F60045
:1006A8007608F907F31F592B5A2B4B2B01300310EF
:1006B800F70DF80DFF3E031D5B2B73087502031D34
:1006C800672B72087402031C6A2B6B2B722B72083F
:1006D800F4027308031CF503F502771401300310C4
:1006E800F30CF20CFF3E031D732B0130F902031DBE
:1006F8007E2B7F2B5A2B7808F3007708F20008002E
:10070800831203132008210403198B2B8C2BBB2B7A
:10071800A401A40A9A2B01300310A00DA10DFF3EDD
:10072800031D902B0130FA007A08A407A11F9D2B06
:100738009E2B8F2B21082302031DA42B20082202A5
:10074800031CA72BA82BAE2B2008A2022108031CF0
:10075800A303A30201300310A10CA00CFF3E031D4C
:10076800AF2B0130A402031DBA2BBB2B9E2B2308F1
:10077800A1002208A0000800FF1BCA2B83137F18C2
:1007880083170008840A0319FF0A080003308A0047
:100798000408840A82070034013400340A3400341F
:1007A80064340034E8340334103427345334313497
:1007B8003A340034533432343A3400345334333412
:1007C8003A3400342534643400340830F200003000
:1007D800F3000A128A113E220A128A110A128A1199
:1007E80076240A128A110A128A11B0240A128A116E
:1007F800F201F301F40120300A128A114A240A1284
:100808008A110A128A11AF220A128A110A128A114F
:10081800BC240A128A110800F7007703031D152C5F
:10082800162C202C76087F3EF80078080A128A11C8
:1008380030240A128A112F2C02307706031D252C2A
:10084800262C2F2C7608BF3EF80078080A128A1149
:1008580030240A128A110800F500831203130910C4
:1008680075080A128A11B6240A128A118312031310
:1008780089140B30F4006230F300F30B412CF40BB5
:10088800412C00008312031389100800F500831619
:1008980003138712751D512C522C562C7408940082
:1008A80087155A2C7208740494008711750873040C
:1008B8008312031394000800F4008312031309142D
:1008C80074080A128A11B6240A128A1183120313B1
:1008D80089141A30F300F30B6F2C000083120313F2
:1008E80089100800831603178801890183160313EA
:1008F800871007118501FF3086008801890183125E
:1009080003138501860188018901071508000A1269
:100918008A119C240A128A118312031313080800EF
:1009280064008001840A0406031900340406952C27
:1009380083160313141CA12CA22C9C2C08007108EC
:100948008A00700E8300FE0E7E0E0900F200720807
:100958008312031393000800831603138113FF30D7
:1009680095000800F200720883120313880008003B
:060978008B170B170800AD
:08400000FF3FFF3FFF3FFF3FC0
:04400E00D420FF3F7C
:00000001FF
